{
  "contractName": "CheeseTouch",
  "abi": [
    {
      "inputs": [
        {
          "internalType": "string",
          "name": "_name",
          "type": "string"
        },
        {
          "internalType": "string",
          "name": "_symbol",
          "type": "string"
        },
        {
          "internalType": "string",
          "name": "baseTokenURI",
          "type": "string"
        }
      ],
      "stateMutability": "nonpayable",
      "type": "constructor"
    },
    {
      "anonymous": false,
      "inputs": [
        {
          "indexed": true,
          "internalType": "address",
          "name": "owner",
          "type": "address"
        },
        {
          "indexed": true,
          "internalType": "address",
          "name": "approved",
          "type": "address"
        },
        {
          "indexed": true,
          "internalType": "uint256",
          "name": "tokenId",
          "type": "uint256"
        }
      ],
      "name": "Approval",
      "type": "event"
    },
    {
      "anonymous": false,
      "inputs": [
        {
          "indexed": true,
          "internalType": "address",
          "name": "owner",
          "type": "address"
        },
        {
          "indexed": true,
          "internalType": "address",
          "name": "operator",
          "type": "address"
        },
        {
          "indexed": false,
          "internalType": "bool",
          "name": "approved",
          "type": "bool"
        }
      ],
      "name": "ApprovalForAll",
      "type": "event"
    },
    {
      "anonymous": false,
      "inputs": [
        {
          "indexed": true,
          "internalType": "address",
          "name": "from",
          "type": "address"
        },
        {
          "indexed": true,
          "internalType": "address",
          "name": "to",
          "type": "address"
        },
        {
          "indexed": true,
          "internalType": "uint256",
          "name": "tokenId",
          "type": "uint256"
        }
      ],
      "name": "Transfer",
      "type": "event"
    },
    {
      "inputs": [
        {
          "internalType": "address",
          "name": "to",
          "type": "address"
        },
        {
          "internalType": "uint256",
          "name": "tokenId",
          "type": "uint256"
        }
      ],
      "name": "approve",
      "outputs": [],
      "stateMutability": "nonpayable",
      "type": "function"
    },
    {
      "inputs": [
        {
          "internalType": "address",
          "name": "owner",
          "type": "address"
        }
      ],
      "name": "balanceOf",
      "outputs": [
        {
          "internalType": "uint256",
          "name": "",
          "type": "uint256"
        }
      ],
      "stateMutability": "view",
      "type": "function",
      "constant": true
    },
    {
      "inputs": [],
      "name": "counter",
      "outputs": [
        {
          "internalType": "uint256",
          "name": "",
          "type": "uint256"
        }
      ],
      "stateMutability": "view",
      "type": "function",
      "constant": true
    },
    {
      "inputs": [],
      "name": "deadline",
      "outputs": [
        {
          "internalType": "uint256",
          "name": "",
          "type": "uint256"
        }
      ],
      "stateMutability": "view",
      "type": "function",
      "constant": true
    },
    {
      "inputs": [
        {
          "internalType": "uint256",
          "name": "tokenId",
          "type": "uint256"
        }
      ],
      "name": "getApproved",
      "outputs": [
        {
          "internalType": "address",
          "name": "",
          "type": "address"
        }
      ],
      "stateMutability": "view",
      "type": "function",
      "constant": true
    },
    {
      "inputs": [
        {
          "internalType": "address",
          "name": "owner",
          "type": "address"
        },
        {
          "internalType": "address",
          "name": "operator",
          "type": "address"
        }
      ],
      "name": "isApprovedForAll",
      "outputs": [
        {
          "internalType": "bool",
          "name": "",
          "type": "bool"
        }
      ],
      "stateMutability": "view",
      "type": "function",
      "constant": true
    },
    {
      "inputs": [],
      "name": "name",
      "outputs": [
        {
          "internalType": "string",
          "name": "",
          "type": "string"
        }
      ],
      "stateMutability": "view",
      "type": "function",
      "constant": true
    },
    {
      "inputs": [
        {
          "internalType": "uint256",
          "name": "tokenId",
          "type": "uint256"
        }
      ],
      "name": "ownerOf",
      "outputs": [
        {
          "internalType": "address",
          "name": "",
          "type": "address"
        }
      ],
      "stateMutability": "view",
      "type": "function",
      "constant": true
    },
    {
      "inputs": [
        {
          "internalType": "address",
          "name": "from",
          "type": "address"
        },
        {
          "internalType": "address",
          "name": "to",
          "type": "address"
        },
        {
          "internalType": "uint256",
          "name": "tokenId",
          "type": "uint256"
        }
      ],
      "name": "safeTransferFrom",
      "outputs": [],
      "stateMutability": "nonpayable",
      "type": "function"
    },
    {
      "inputs": [
        {
          "internalType": "address",
          "name": "from",
          "type": "address"
        },
        {
          "internalType": "address",
          "name": "to",
          "type": "address"
        },
        {
          "internalType": "uint256",
          "name": "tokenId",
          "type": "uint256"
        },
        {
          "internalType": "bytes",
          "name": "_data",
          "type": "bytes"
        }
      ],
      "name": "safeTransferFrom",
      "outputs": [],
      "stateMutability": "nonpayable",
      "type": "function"
    },
    {
      "inputs": [
        {
          "internalType": "address",
          "name": "operator",
          "type": "address"
        },
        {
          "internalType": "bool",
          "name": "approved",
          "type": "bool"
        }
      ],
      "name": "setApprovalForAll",
      "outputs": [],
      "stateMutability": "nonpayable",
      "type": "function"
    },
    {
      "inputs": [
        {
          "internalType": "bytes4",
          "name": "interfaceId",
          "type": "bytes4"
        }
      ],
      "name": "supportsInterface",
      "outputs": [
        {
          "internalType": "bool",
          "name": "",
          "type": "bool"
        }
      ],
      "stateMutability": "view",
      "type": "function",
      "constant": true
    },
    {
      "inputs": [],
      "name": "symbol",
      "outputs": [
        {
          "internalType": "string",
          "name": "",
          "type": "string"
        }
      ],
      "stateMutability": "view",
      "type": "function",
      "constant": true
    },
    {
      "inputs": [
        {
          "internalType": "uint256",
          "name": "index",
          "type": "uint256"
        }
      ],
      "name": "tokenByIndex",
      "outputs": [
        {
          "internalType": "uint256",
          "name": "",
          "type": "uint256"
        }
      ],
      "stateMutability": "view",
      "type": "function",
      "constant": true
    },
    {
      "inputs": [
        {
          "internalType": "address",
          "name": "owner",
          "type": "address"
        },
        {
          "internalType": "uint256",
          "name": "index",
          "type": "uint256"
        }
      ],
      "name": "tokenOfOwnerByIndex",
      "outputs": [
        {
          "internalType": "uint256",
          "name": "",
          "type": "uint256"
        }
      ],
      "stateMutability": "view",
      "type": "function",
      "constant": true
    },
    {
      "inputs": [
        {
          "internalType": "uint256",
          "name": "tokenId",
          "type": "uint256"
        }
      ],
      "name": "tokenURI",
      "outputs": [
        {
          "internalType": "string",
          "name": "",
          "type": "string"
        }
      ],
      "stateMutability": "view",
      "type": "function",
      "constant": true
    },
    {
      "inputs": [
        {
          "internalType": "address",
          "name": "from",
          "type": "address"
        },
        {
          "internalType": "address",
          "name": "to",
          "type": "address"
        },
        {
          "internalType": "uint256",
          "name": "tokenId",
          "type": "uint256"
        }
      ],
      "name": "transferFrom",
      "outputs": [],
      "stateMutability": "nonpayable",
      "type": "function"
    },
    {
      "inputs": [
        {
          "internalType": "string",
          "name": "_uri",
          "type": "string"
        }
      ],
      "name": "setBaseTokenURI",
      "outputs": [],
      "stateMutability": "nonpayable",
      "type": "function"
    },
    {
      "inputs": [],
      "name": "createCheese",
      "outputs": [],
      "stateMutability": "nonpayable",
      "type": "function"
    },
    {
      "inputs": [],
      "name": "getCurrentCheckpoint",
      "outputs": [
        {
          "components": [
            {
              "internalType": "uint256",
              "name": "tokenId",
              "type": "uint256"
            },
            {
              "internalType": "uint256",
              "name": "lastTransfer",
              "type": "uint256"
            },
            {
              "internalType": "address",
              "name": "owner",
              "type": "address"
            }
          ],
          "internalType": "struct CheeseTouch.Checkpoint",
          "name": "",
          "type": "tuple"
        }
      ],
      "stateMutability": "view",
      "type": "function",
      "constant": true
    },
    {
      "inputs": [],
      "name": "totalSupply",
      "outputs": [
        {
          "internalType": "uint256",
          "name": "",
          "type": "uint256"
        }
      ],
      "stateMutability": "pure",
      "type": "function",
      "constant": true
    },
    {
      "inputs": [
        {
          "internalType": "uint256",
          "name": "start",
          "type": "uint256"
        },
        {
          "internalType": "uint256",
          "name": "end",
          "type": "uint256"
        }
      ],
      "name": "getPastResult",
      "outputs": [
        {
          "components": [
            {
              "internalType": "uint256",
              "name": "tokenId",
              "type": "uint256"
            },
            {
              "internalType": "uint256",
              "name": "lastTransfer",
              "type": "uint256"
            },
            {
              "internalType": "address",
              "name": "owner",
              "type": "address"
            }
          ],
          "internalType": "struct CheeseTouch.Checkpoint[]",
          "name": "",
          "type": "tuple[]"
        }
      ],
      "stateMutability": "view",
      "type": "function",
      "constant": true
    },
    {
      "inputs": [],
      "name": "getInfo",
      "outputs": [
        {
          "components": [
            {
              "internalType": "uint256",
              "name": "tokenId",
              "type": "uint256"
            },
            {
              "internalType": "uint256",
              "name": "lastTransfer",
              "type": "uint256"
            },
            {
              "internalType": "address",
              "name": "owner",
              "type": "address"
            }
          ],
          "internalType": "struct CheeseTouch.Checkpoint",
          "name": "checkpoint",
          "type": "tuple"
        },
        {
          "internalType": "bool",
          "name": "isDead",
          "type": "bool"
        }
      ],
      "stateMutability": "view",
      "type": "function",
      "constant": true
    },
    {
      "inputs": [
        {
          "internalType": "address",
          "name": "user",
          "type": "address"
        }
      ],
      "name": "getScore",
      "outputs": [
        {
          "internalType": "uint256",
          "name": "",
          "type": "uint256"
        }
      ],
      "stateMutability": "view",
      "type": "function",
      "constant": true
    },
    {
      "inputs": [],
      "name": "getScore__sender",
      "outputs": [
        {
          "internalType": "uint256",
          "name": "",
          "type": "uint256"
        }
      ],
      "stateMutability": "view",
      "type": "function",
      "constant": true
    }
  ],
  "bytecode": "0x60806040523480156200001157600080fd5b506040516200494338038062004943833981810160405281019062000037919062000510565b8282816000908051906020019062000051929190620003ee565b5080600190805190602001906200006a929190620003ee565b50505033600a60006101000a81548173ffffffffffffffffffffffffffffffffffffffff021916908373ffffffffffffffffffffffffffffffffffffffff16021790555080600d9080519060200190620000c6929190620003ee565b5062015180600c819055506040518060600160405280600b5481526020014281526020013373ffffffffffffffffffffffffffffffffffffffff16815250600e6000600b548152602001908152602001600020600082015181600001556020820151816001015560408201518160020160006101000a81548173ffffffffffffffffffffffffffffffffffffffff021916908373ffffffffffffffffffffffffffffffffffffffff1602179055509050506200018b33600b54620001b060201b60201c565b6001600b6000828254620001a09190620006b3565b92505081905550505050620008ac565b600073ffffffffffffffffffffffffffffffffffffffff168273ffffffffffffffffffffffffffffffffffffffff16141562000223576040517f08c379a00000000000000000000000000000000000000000000000000000000081526004016200021a9062000621565b60405180910390fd5b62000234816200038260201b60201c565b1562000277576040517f08c379a00000000000000000000000000000000000000000000000000000000081526004016200026e90620005ff565b60405180910390fd5b6001600360008473ffffffffffffffffffffffffffffffffffffffff1673ffffffffffffffffffffffffffffffffffffffff1681526020019081526020016000206000828254620002c99190620006b3565b92505081905550816002600083815260200190815260200160002060006101000a81548173ffffffffffffffffffffffffffffffffffffffff021916908373ffffffffffffffffffffffffffffffffffffffff160217905550808273ffffffffffffffffffffffffffffffffffffffff16600073ffffffffffffffffffffffffffffffffffffffff167fddf252ad1be2c89b69c2b068fc378daa952ba7f163c4a11628f55a4df523b3ef60405160405180910390a45050565b60008073ffffffffffffffffffffffffffffffffffffffff166002600084815260200190815260200160002060009054906101000a900473ffffffffffffffffffffffffffffffffffffffff1673ffffffffffffffffffffffffffffffffffffffff1614159050919050565b828054620003fc9062000750565b90600052602060002090601f0160209004810192826200042057600085556200046c565b82601f106200043b57805160ff19168380011785556200046c565b828001600101855582156200046c579182015b828111156200046b5782518255916020019190600101906200044e565b5b5090506200047b91906200047f565b5090565b5b808211156200049a57600081600090555060010162000480565b5090565b6000620004b5620004af846200066c565b62000643565b905082815260208101848484011115620004ce57600080fd5b620004db8482856200071a565b509392505050565b600082601f830112620004f557600080fd5b8151620005078482602086016200049e565b91505092915050565b6000806000606084860312156200052657600080fd5b600084015167ffffffffffffffff8111156200054157600080fd5b6200054f86828701620004e3565b935050602084015167ffffffffffffffff8111156200056d57600080fd5b6200057b86828701620004e3565b925050604084015167ffffffffffffffff8111156200059957600080fd5b620005a786828701620004e3565b9150509250925092565b6000620005c0601c83620006a2565b9150620005cd826200085a565b602082019050919050565b6000620005e7602083620006a2565b9150620005f48262000883565b602082019050919050565b600060208201905081810360008301526200061a81620005b1565b9050919050565b600060208201905081810360008301526200063c81620005d8565b9050919050565b60006200064f62000662565b90506200065d828262000786565b919050565b6000604051905090565b600067ffffffffffffffff8211156200068a57620006896200081a565b5b620006958262000849565b9050602081019050919050565b600082825260208201905092915050565b6000620006c08262000710565b9150620006cd8362000710565b9250827fffffffffffffffffffffffffffffffffffffffffffffffffffffffffffffffff03821115620007055762000704620007bc565b5b828201905092915050565b6000819050919050565b60005b838110156200073a5780820151818401526020810190506200071d565b838111156200074a576000848401525b50505050565b600060028204905060018216806200076957607f821691505b6020821081141562000780576200077f620007eb565b5b50919050565b620007918262000849565b810181811067ffffffffffffffff82111715620007b357620007b26200081a565b5b80604052505050565b7f4e487b7100000000000000000000000000000000000000000000000000000000600052601160045260246000fd5b7f4e487b7100000000000000000000000000000000000000000000000000000000600052602260045260246000fd5b7f4e487b7100000000000000000000000000000000000000000000000000000000600052604160045260246000fd5b6000601f19601f8301169050919050565b7f4552433732313a20746f6b656e20616c7265616479206d696e74656400000000600082015250565b7f4552433732313a206d696e7420746f20746865207a65726f2061646472657373600082015250565b61408780620008bc6000396000f3fe608060405234801561001057600080fd5b50600436106101735760003560e01c806361bc221a116100de578063a22cb46511610097578063c87b56dd11610071578063c87b56dd1461043b578063d47875d01461046b578063e985e9c51461049b578063f854f65b146104cb57610173565b8063a22cb465146103e5578063b88d4fde14610401578063c79e89f71461041d57610173565b806361bc221a146103215780636352211e1461033f57806370a082311461036f5780638ba54ef81461039f5780638c7514f6146103bd57806395d89b41146103c757610173565b806329dcb0cf1161013057806329dcb0cf1461024c5780632f745c591461026a57806330176e131461029a57806342842e0e146102b65780634f6ccce7146102d25780635a9b0b891461030257610173565b806301ffc9a71461017857806306fdde03146101a8578063081812fc146101c6578063095ea7b3146101f657806318160ddd1461021257806323b872dd14610230575b600080fd5b610192600480360381019061018d9190612bba565b6104fb565b60405161019f9190613249565b60405180910390f35b6101b0610575565b6040516101bd9190613264565b60405180910390f35b6101e060048036038101906101db9190612c4d565b610607565b6040516101ed91906131c0565b60405180910390f35b610210600480360381019061020b9190612b7e565b61068c565b005b61021a6107a4565b604051610227919061358a565b60405180910390f35b61024a60048036038101906102459190612a78565b6107ad565b005b61025461080d565b604051610261919061358a565b60405180910390f35b610284600480360381019061027f9190612b7e565b610813565b604051610291919061358a565b60405180910390f35b6102b460048036038101906102af9190612c0c565b6108b8565b005b6102d060048036038101906102cb9190612a78565b610962565b005b6102ec60048036038101906102e79190612c4d565b610982565b6040516102f9919061358a565b60405180910390f35b61030a610a19565b604051610318929190613561565b60405180910390f35b610329610ad5565b604051610336919061358a565b60405180910390f35b61035960048036038101906103549190612c4d565b610adb565b60405161036691906131c0565b60405180910390f35b61038960048036038101906103849190612a13565b610b8d565b604051610396919061358a565b60405180910390f35b6103a7610c45565b6040516103b4919061358a565b60405180910390f35b6103c5610c55565b005b6103cf610e88565b6040516103dc9190613264565b60405180910390f35b6103ff60048036038101906103fa9190612b42565b610f1a565b005b61041b60048036038101906104169190612ac7565b610f30565b005b610425610f92565b6040516104329190613546565b60405180910390f35b61045560048036038101906104509190612c4d565b611035565b6040516104629190613264565b60405180910390f35b61048560048036038101906104809190612a13565b6110dc565b604051610492919061358a565b60405180910390f35b6104b560048036038101906104b09190612a3c565b611125565b6040516104c29190613249565b60405180910390f35b6104e560048036038101906104e09190612c76565b6111b9565b6040516104f29190613227565b60405180910390f35b60007f780e9d63000000000000000000000000000000000000000000000000000000007bffffffffffffffffffffffffffffffffffffffffffffffffffffffff1916827bffffffffffffffffffffffffffffffffffffffffffffffffffffffff1916148061056e575061056d82611421565b5b9050919050565b60606000805461058490613819565b80601f01602080910402602001604051908101604052809291908181526020018280546105b090613819565b80156105fd5780601f106105d2576101008083540402835291602001916105fd565b820191906000526020600020905b8154815290600101906020018083116105e057829003601f168201915b5050505050905090565b600061061282611503565b610651576040517f08c379a000000000000000000000000000000000000000000000000000000000815260040161064890613466565b60405180910390fd5b6004600083815260200190815260200160002060009054906101000a900473ffffffffffffffffffffffffffffffffffffffff169050919050565b600061069782610adb565b90508073ffffffffffffffffffffffffffffffffffffffff168373ffffffffffffffffffffffffffffffffffffffff161415610708576040517f08c379a00000000000000000000000000000000000000000000000000000000081526004016106ff906134c6565b60405180910390fd5b8073ffffffffffffffffffffffffffffffffffffffff1661072761156f565b73ffffffffffffffffffffffffffffffffffffffff16148061075657506107558161075061156f565b611125565b5b610795576040517f08c379a000000000000000000000000000000000000000000000000000000000815260040161078c906133c6565b60405180910390fd5b61079f8383611577565b505050565b60006001905090565b6107be6107b861156f565b82611630565b6107fd576040517f08c379a00000000000000000000000000000000000000000000000000000000081526004016107f490613506565b60405180910390fd5b61080883838361170e565b505050565b600c5481565b600061081e83610b8d565b821061085f576040517f08c379a0000000000000000000000000000000000000000000000000000000008152600401610856906132a6565b60405180910390fd5b600660008473ffffffffffffffffffffffffffffffffffffffff1673ffffffffffffffffffffffffffffffffffffffff168152602001908152602001600020600083815260200190815260200160002054905092915050565b600a60009054906101000a900473ffffffffffffffffffffffffffffffffffffffff1673ffffffffffffffffffffffffffffffffffffffff163373ffffffffffffffffffffffffffffffffffffffff1614610948576040517f08c379a000000000000000000000000000000000000000000000000000000000815260040161093f90613386565b60405180910390fd5b80600d908051906020019061095e929190612800565b5050565b61097d83838360405180602001604052806000815250610f30565b505050565b600061098c611975565b82106109cd576040517f08c379a00000000000000000000000000000000000000000000000000000000081526004016109c490613526565b60405180910390fd5b60088281548110610a07577f4e487b7100000000000000000000000000000000000000000000000000000000600052603260045260246000fd5b90600052602060002001549050919050565b610a21612886565b6000600e60006001600b54610a36919061372f565b815260200190815260200160002060405180606001604052908160008201548152602001600182015481526020016002820160009054906101000a900473ffffffffffffffffffffffffffffffffffffffff1673ffffffffffffffffffffffffffffffffffffffff1673ffffffffffffffffffffffffffffffffffffffff1681525050915042600c548360200151610ace91906136a8565b1090509091565b600b5481565b6000806002600084815260200190815260200160002060009054906101000a900473ffffffffffffffffffffffffffffffffffffffff169050600073ffffffffffffffffffffffffffffffffffffffff168173ffffffffffffffffffffffffffffffffffffffff161415610b84576040517f08c379a0000000000000000000000000000000000000000000000000000000008152600401610b7b90613406565b60405180910390fd5b80915050919050565b60008073ffffffffffffffffffffffffffffffffffffffff168273ffffffffffffffffffffffffffffffffffffffff161415610bfe576040517f08c379a0000000000000000000000000000000000000000000000000000000008152600401610bf5906133e6565b60405180910390fd5b600360008373ffffffffffffffffffffffffffffffffffffffff1673ffffffffffffffffffffffffffffffffffffffff168152602001908152602001600020549050919050565b6000610c50336110dc565b905090565b60006001600b54610c66919061372f565b90506000600e600083815260200190815260200160002060405180606001604052908160008201548152602001600182015481526020016002820160009054906101000a900473ffffffffffffffffffffffffffffffffffffffff1673ffffffffffffffffffffffffffffffffffffffff1673ffffffffffffffffffffffffffffffffffffffff1681525050905042600c548260200151610d0791906136a8565b10610d47576040517f08c379a0000000000000000000000000000000000000000000000000000000008152600401610d3e90613486565b60405180910390fd5b6001600f6000610d646001600b54610d5f919061372f565b610adb565b73ffffffffffffffffffffffffffffffffffffffff1673ffffffffffffffffffffffffffffffffffffffff1681526020019081526020016000206000828254610dad91906136a8565b92505081905550610dcb6001600b54610dc6919061372f565b611982565b610dd733600b54611a87565b42600e6000600b5481526020019081526020016000206001018190555033600e6000600b54815260200190815260200160002060020160006101000a81548173ffffffffffffffffffffffffffffffffffffffff021916908373ffffffffffffffffffffffffffffffffffffffff160217905550600b54600e6000600b548152602001908152602001600020600001819055506001600b6000828254610e7d91906136a8565b925050819055505050565b606060018054610e9790613819565b80601f0160208091040260200160405190810160405280929190818152602001828054610ec390613819565b8015610f105780601f10610ee557610100808354040283529160200191610f10565b820191906000526020600020905b815481529060010190602001808311610ef357829003601f168201915b5050505050905090565b610f2c610f2561156f565b8383611c49565b5050565b610f41610f3b61156f565b83611630565b610f80576040517f08c379a0000000000000000000000000000000000000000000000000000000008152600401610f7790613506565b60405180910390fd5b610f8c84848484611db6565b50505050565b610f9a612886565b600e60006001600b54610fad919061372f565b815260200190815260200160002060405180606001604052908160008201548152602001600182015481526020016002820160009054906101000a900473ffffffffffffffffffffffffffffffffffffffff1673ffffffffffffffffffffffffffffffffffffffff1673ffffffffffffffffffffffffffffffffffffffff1681525050905090565b606061104082611503565b61107f576040517f08c379a0000000000000000000000000000000000000000000000000000000008152600401611076906134a6565b60405180910390fd5b6000611089611e12565b905060008151116110a957604051806020016040528060008152506110d4565b806110b384611ea4565b6040516020016110c492919061319c565b6040516020818303038152906040525b915050919050565b6000600f60008373ffffffffffffffffffffffffffffffffffffffff1673ffffffffffffffffffffffffffffffffffffffff168152602001908152602001600020549050919050565b6000600560008473ffffffffffffffffffffffffffffffffffffffff1673ffffffffffffffffffffffffffffffffffffffff16815260200190815260200160002060008373ffffffffffffffffffffffffffffffffffffffff1673ffffffffffffffffffffffffffffffffffffffff16815260200190815260200160002060009054906101000a900460ff16905092915050565b606060008310156111ff576040517f08c379a00000000000000000000000000000000000000000000000000000000081526004016111f6906134e6565b60405180910390fd5b81831115611242576040517f08c379a0000000000000000000000000000000000000000000000000000000008152600401611239906133a6565b60405180910390fd5b600b54821115611287576040517f08c379a000000000000000000000000000000000000000000000000000000000815260040161127e90613286565b60405180910390fd5b60008383611295919061372f565b67ffffffffffffffff8111156112d4577f4e487b7100000000000000000000000000000000000000000000000000000000600052604160045260246000fd5b60405190808252806020026020018201604052801561130d57816020015b6112fa612886565b8152602001906001900390816112f25790505b5090506000848461131e919061372f565b905060005b8181101561141557600e6000828861133b91906136a8565b815260200190815260200160002060405180606001604052908160008201548152602001600182015481526020016002820160009054906101000a900473ffffffffffffffffffffffffffffffffffffffff1673ffffffffffffffffffffffffffffffffffffffff1673ffffffffffffffffffffffffffffffffffffffff16815250508382815181106113f7577f4e487b7100000000000000000000000000000000000000000000000000000000600052603260045260246000fd5b6020026020010181905250808061140d9061387c565b915050611323565b50819250505092915050565b60007f80ac58cd000000000000000000000000000000000000000000000000000000007bffffffffffffffffffffffffffffffffffffffffffffffffffffffff1916827bffffffffffffffffffffffffffffffffffffffffffffffffffffffff191614806114ec57507f5b5e139f000000000000000000000000000000000000000000000000000000007bffffffffffffffffffffffffffffffffffffffffffffffffffffffff1916827bffffffffffffffffffffffffffffffffffffffffffffffffffffffff1916145b806114fc57506114fb82612051565b5b9050919050565b60008073ffffffffffffffffffffffffffffffffffffffff166002600084815260200190815260200160002060009054906101000a900473ffffffffffffffffffffffffffffffffffffffff1673ffffffffffffffffffffffffffffffffffffffff1614159050919050565b600033905090565b816004600083815260200190815260200160002060006101000a81548173ffffffffffffffffffffffffffffffffffffffff021916908373ffffffffffffffffffffffffffffffffffffffff160217905550808273ffffffffffffffffffffffffffffffffffffffff166115ea83610adb565b73ffffffffffffffffffffffffffffffffffffffff167f8c5be1e5ebec7d5bd14f71427d1e84f3dd0314c0f7b2291e5b200ac8c7c3b92560405160405180910390a45050565b600061163b82611503565b61167a576040517f08c379a000000000000000000000000000000000000000000000000000000000815260040161167190613366565b60405180910390fd5b600061168583610adb565b90508073ffffffffffffffffffffffffffffffffffffffff168473ffffffffffffffffffffffffffffffffffffffff1614806116f457508373ffffffffffffffffffffffffffffffffffffffff166116dc84610607565b73ffffffffffffffffffffffffffffffffffffffff16145b8061170557506117048185611125565b5b91505092915050565b8273ffffffffffffffffffffffffffffffffffffffff1661172e82610adb565b73ffffffffffffffffffffffffffffffffffffffff1614611784576040517f08c379a000000000000000000000000000000000000000000000000000000000815260040161177b906132e6565b60405180910390fd5b600073ffffffffffffffffffffffffffffffffffffffff168273ffffffffffffffffffffffffffffffffffffffff1614156117f4576040517f08c379a00000000000000000000000000000000000000000000000000000000081526004016117eb90613326565b60405180910390fd5b6117ff8383836120bb565b61180a600082611577565b6001600360008573ffffffffffffffffffffffffffffffffffffffff1673ffffffffffffffffffffffffffffffffffffffff168152602001908152602001600020600082825461185a919061372f565b925050819055506001600360008473ffffffffffffffffffffffffffffffffffffffff1673ffffffffffffffffffffffffffffffffffffffff16815260200190815260200160002060008282546118b191906136a8565b92505081905550816002600083815260200190815260200160002060006101000a81548173ffffffffffffffffffffffffffffffffffffffff021916908373ffffffffffffffffffffffffffffffffffffffff160217905550808273ffffffffffffffffffffffffffffffffffffffff168473ffffffffffffffffffffffffffffffffffffffff167fddf252ad1be2c89b69c2b068fc378daa952ba7f163c4a11628f55a4df523b3ef60405160405180910390a4611970838383612130565b505050565b6000600880549050905090565b600061198d82610adb565b905061199a600083611577565b6001600360008373ffffffffffffffffffffffffffffffffffffffff1673ffffffffffffffffffffffffffffffffffffffff16815260200190815260200160002060008282546119ea919061372f565b925050819055506002600083815260200190815260200160002060006101000a81549073ffffffffffffffffffffffffffffffffffffffff021916905581600073ffffffffffffffffffffffffffffffffffffffff168273ffffffffffffffffffffffffffffffffffffffff167fddf252ad1be2c89b69c2b068fc378daa952ba7f163c4a11628f55a4df523b3ef60405160405180910390a45050565b600073ffffffffffffffffffffffffffffffffffffffff168273ffffffffffffffffffffffffffffffffffffffff161415611af7576040517f08c379a0000000000000000000000000000000000000000000000000000000008152600401611aee90613426565b60405180910390fd5b611b0081611503565b15611b40576040517f08c379a0000000000000000000000000000000000000000000000000000000008152600401611b3790613306565b60405180910390fd5b6001600360008473ffffffffffffffffffffffffffffffffffffffff1673ffffffffffffffffffffffffffffffffffffffff1681526020019081526020016000206000828254611b9091906136a8565b92505081905550816002600083815260200190815260200160002060006101000a81548173ffffffffffffffffffffffffffffffffffffffff021916908373ffffffffffffffffffffffffffffffffffffffff160217905550808273ffffffffffffffffffffffffffffffffffffffff16600073ffffffffffffffffffffffffffffffffffffffff167fddf252ad1be2c89b69c2b068fc378daa952ba7f163c4a11628f55a4df523b3ef60405160405180910390a45050565b8173ffffffffffffffffffffffffffffffffffffffff168373ffffffffffffffffffffffffffffffffffffffff161415611cb8576040517f08c379a0000000000000000000000000000000000000000000000000000000008152600401611caf90613346565b60405180910390fd5b80600560008573ffffffffffffffffffffffffffffffffffffffff1673ffffffffffffffffffffffffffffffffffffffff16815260200190815260200160002060008473ffffffffffffffffffffffffffffffffffffffff1673ffffffffffffffffffffffffffffffffffffffff16815260200190815260200160002060006101000a81548160ff0219169083151502179055508173ffffffffffffffffffffffffffffffffffffffff168373ffffffffffffffffffffffffffffffffffffffff167f17307eab39ab6107e8899845ad3d59bd9653f200f220920489ca2b5937696c3183604051611da99190613249565b60405180910390a3505050565b611dc184848461170e565b611dcd848484846121b0565b611e0c576040517f08c379a0000000000000000000000000000000000000000000000000000000008152600401611e03906132c6565b60405180910390fd5b50505050565b6060600d8054611e2190613819565b80601f0160208091040260200160405190810160405280929190818152602001828054611e4d90613819565b8015611e9a5780601f10611e6f57610100808354040283529160200191611e9a565b820191906000526020600020905b815481529060010190602001808311611e7d57829003601f168201915b5050505050905090565b60606000821415611eec576040518060400160405280600181526020017f3000000000000000000000000000000000000000000000000000000000000000815250905061204c565b600082905060005b60008214611f1e578080611f079061387c565b915050600a82611f1791906136fe565b9150611ef4565b60008167ffffffffffffffff811115611f60577f4e487b7100000000000000000000000000000000000000000000000000000000600052604160045260246000fd5b6040519080825280601f01601f191660200182016040528015611f925781602001600182028036833780820191505090505b5090505b6000851461204557600182611fab919061372f565b9150600a85611fba91906138c5565b6030611fc691906136a8565b60f81b818381518110612002577f4e487b7100000000000000000000000000000000000000000000000000000000600052603260045260246000fd5b60200101907effffffffffffffffffffffffffffffffffffffffffffffffffffffffffffff1916908160001a905350600a8561203e91906136fe565b9450611f96565b8093505050505b919050565b60007f01ffc9a7000000000000000000000000000000000000000000000000000000007bffffffffffffffffffffffffffffffffffffffffffffffffffffffff1916827bffffffffffffffffffffffffffffffffffffffffffffffffffffffff1916149050919050565b42600c54600e6000848152602001908152602001600020600101546120e091906136a8565b11612120576040517f08c379a000000000000000000000000000000000000000000000000000000000815260040161211790613446565b60405180910390fd5b61212b838383612347565b505050565b42600e60008381526020019081526020016000206001018190555081600e600083815260200190815260200160002060020160006101000a81548173ffffffffffffffffffffffffffffffffffffffff021916908373ffffffffffffffffffffffffffffffffffffffff1602179055506121ab83838361245b565b505050565b60006121d18473ffffffffffffffffffffffffffffffffffffffff16612460565b1561233a578373ffffffffffffffffffffffffffffffffffffffff1663150b7a026121fa61156f565b8786866040518563ffffffff1660e01b815260040161221c94939291906131db565b602060405180830381600087803b15801561223657600080fd5b505af192505050801561226757506040513d601f19601f820116820180604052508101906122649190612be3565b60015b6122ea573d8060008114612297576040519150601f19603f3d011682016040523d82523d6000602084013e61229c565b606091505b506000815114156122e2576040517f08c379a00000000000000000000000000000000000000000000000000000000081526004016122d9906132c6565b60405180910390fd5b805181602001fd5b63150b7a0260e01b7bffffffffffffffffffffffffffffffffffffffffffffffffffffffff1916817bffffffffffffffffffffffffffffffffffffffffffffffffffffffff19161491505061233f565b600190505b949350505050565b612352838383612483565b600073ffffffffffffffffffffffffffffffffffffffff168373ffffffffffffffffffffffffffffffffffffffff1614156123955761239081612488565b6123d4565b8173ffffffffffffffffffffffffffffffffffffffff168373ffffffffffffffffffffffffffffffffffffffff16146123d3576123d283826124d1565b5b5b600073ffffffffffffffffffffffffffffffffffffffff168273ffffffffffffffffffffffffffffffffffffffff161415612417576124128161263e565b612456565b8273ffffffffffffffffffffffffffffffffffffffff168273ffffffffffffffffffffffffffffffffffffffff1614612455576124548282612781565b5b5b505050565b505050565b6000808273ffffffffffffffffffffffffffffffffffffffff163b119050919050565b505050565b6008805490506009600083815260200190815260200160002081905550600881908060018154018082558091505060019003906000526020600020016000909190919091505550565b600060016124de84610b8d565b6124e8919061372f565b90506000600760008481526020019081526020016000205490508181146125cd576000600660008673ffffffffffffffffffffffffffffffffffffffff1673ffffffffffffffffffffffffffffffffffffffff168152602001908152602001600020600084815260200190815260200160002054905080600660008773ffffffffffffffffffffffffffffffffffffffff1673ffffffffffffffffffffffffffffffffffffffff168152602001908152602001600020600084815260200190815260200160002081905550816007600083815260200190815260200160002081905550505b6007600084815260200190815260200160002060009055600660008573ffffffffffffffffffffffffffffffffffffffff1673ffffffffffffffffffffffffffffffffffffffff16815260200190815260200160002060008381526020019081526020016000206000905550505050565b60006001600880549050612652919061372f565b90506000600960008481526020019081526020016000205490506000600883815481106126a8577f4e487b7100000000000000000000000000000000000000000000000000000000600052603260045260246000fd5b9060005260206000200154905080600883815481106126f0577f4e487b7100000000000000000000000000000000000000000000000000000000600052603260045260246000fd5b906000526020600020018190555081600960008381526020019081526020016000208190555060096000858152602001908152602001600020600090556008805480612765577f4e487b7100000000000000000000000000000000000000000000000000000000600052603160045260246000fd5b6001900381819060005260206000200160009055905550505050565b600061278c83610b8d565b905081600660008573ffffffffffffffffffffffffffffffffffffffff1673ffffffffffffffffffffffffffffffffffffffff168152602001908152602001600020600083815260200190815260200160002081905550806007600084815260200190815260200160002081905550505050565b82805461280c90613819565b90600052602060002090601f01602090048101928261282e5760008555612875565b82601f1061284757805160ff1916838001178555612875565b82800160010185558215612875579182015b82811115612874578251825591602001919060010190612859565b5b50905061288291906128bd565b5090565b60405180606001604052806000815260200160008152602001600073ffffffffffffffffffffffffffffffffffffffff1681525090565b5b808211156128d65760008160009055506001016128be565b5090565b60006128ed6128e8846135ca565b6135a5565b90508281526020810184848401111561290557600080fd5b6129108482856137d7565b509392505050565b600061292b612926846135fb565b6135a5565b90508281526020810184848401111561294357600080fd5b61294e8482856137d7565b509392505050565b60008135905061296581613ff5565b92915050565b60008135905061297a8161400c565b92915050565b60008135905061298f81614023565b92915050565b6000815190506129a481614023565b92915050565b600082601f8301126129bb57600080fd5b81356129cb8482602086016128da565b91505092915050565b600082601f8301126129e557600080fd5b81356129f5848260208601612918565b91505092915050565b600081359050612a0d8161403a565b92915050565b600060208284031215612a2557600080fd5b6000612a3384828501612956565b91505092915050565b60008060408385031215612a4f57600080fd5b6000612a5d85828601612956565b9250506020612a6e85828601612956565b9150509250929050565b600080600060608486031215612a8d57600080fd5b6000612a9b86828701612956565b9350506020612aac86828701612956565b9250506040612abd868287016129fe565b9150509250925092565b60008060008060808587031215612add57600080fd5b6000612aeb87828801612956565b9450506020612afc87828801612956565b9350506040612b0d878288016129fe565b925050606085013567ffffffffffffffff811115612b2a57600080fd5b612b36878288016129aa565b91505092959194509250565b60008060408385031215612b5557600080fd5b6000612b6385828601612956565b9250506020612b748582860161296b565b9150509250929050565b60008060408385031215612b9157600080fd5b6000612b9f85828601612956565b9250506020612bb0858286016129fe565b9150509250929050565b600060208284031215612bcc57600080fd5b6000612bda84828501612980565b91505092915050565b600060208284031215612bf557600080fd5b6000612c0384828501612995565b91505092915050565b600060208284031215612c1e57600080fd5b600082013567ffffffffffffffff811115612c3857600080fd5b612c44848285016129d4565b91505092915050565b600060208284031215612c5f57600080fd5b6000612c6d848285016129fe565b91505092915050565b60008060408385031215612c8957600080fd5b6000612c97858286016129fe565b9250506020612ca8858286016129fe565b9150509250929050565b6000612cbe83836130fa565b60608301905092915050565b612cd381613763565b82525050565b612ce281613763565b82525050565b6000612cf38261363c565b612cfd818561366a565b9350612d088361362c565b8060005b83811015612d39578151612d208882612cb2565b9750612d2b8361365d565b925050600181019050612d0c565b5085935050505092915050565b612d4f81613775565b82525050565b6000612d6082613647565b612d6a818561367b565b9350612d7a8185602086016137e6565b612d83816139b2565b840191505092915050565b6000612d9982613652565b612da3818561368c565b9350612db38185602086016137e6565b612dbc816139b2565b840191505092915050565b6000612dd282613652565b612ddc818561369d565b9350612dec8185602086016137e6565b80840191505092915050565b6000612e0560378361368c565b9150612e10826139c3565b604082019050919050565b6000612e28602b8361368c565b9150612e3382613a12565b604082019050919050565b6000612e4b60328361368c565b9150612e5682613a61565b604082019050919050565b6000612e6e60258361368c565b9150612e7982613ab0565b604082019050919050565b6000612e91601c8361368c565b9150612e9c82613aff565b602082019050919050565b6000612eb460248361368c565b9150612ebf82613b28565b604082019050919050565b6000612ed760198361368c565b9150612ee282613b77565b602082019050919050565b6000612efa602c8361368c565b9150612f0582613ba0565b604082019050919050565b6000612f1d601a8361368c565b9150612f2882613bef565b602082019050919050565b6000612f40602c8361368c565b9150612f4b82613c18565b604082019050919050565b6000612f6360388361368c565b9150612f6e82613c67565b604082019050919050565b6000612f86602a8361368c565b9150612f9182613cb6565b604082019050919050565b6000612fa960298361368c565b9150612fb482613d05565b604082019050919050565b6000612fcc60208361368c565b9150612fd782613d54565b602082019050919050565b6000612fef60458361368c565b9150612ffa82613d7d565b606082019050919050565b6000613012602c8361368c565b915061301d82613df2565b604082019050919050565b600061303560328361368c565b915061304082613e41565b604082019050919050565b6000613058602f8361368c565b915061306382613e90565b604082019050919050565b600061307b60218361368c565b915061308682613edf565b604082019050919050565b600061309e601e8361368c565b91506130a982613f2e565b602082019050919050565b60006130c160318361368c565b91506130cc82613f57565b604082019050919050565b60006130e4602c8361368c565b91506130ef82613fa6565b604082019050919050565b606082016000820151613110600085018261317e565b506020820151613123602085018261317e565b5060408201516131366040850182612cca565b50505050565b606082016000820151613152600085018261317e565b506020820151613165602085018261317e565b5060408201516131786040850182612cca565b50505050565b613187816137cd565b82525050565b613196816137cd565b82525050565b60006131a88285612dc7565b91506131b48284612dc7565b91508190509392505050565b60006020820190506131d56000830184612cd9565b92915050565b60006080820190506131f06000830187612cd9565b6131fd6020830186612cd9565b61320a604083018561318d565b818103606083015261321c8184612d55565b905095945050505050565b600060208201905081810360008301526132418184612ce8565b905092915050565b600060208201905061325e6000830184612d46565b92915050565b6000602082019050818103600083015261327e8184612d8e565b905092915050565b6000602082019050818103600083015261329f81612df8565b9050919050565b600060208201905081810360008301526132bf81612e1b565b9050919050565b600060208201905081810360008301526132df81612e3e565b9050919050565b600060208201905081810360008301526132ff81612e61565b9050919050565b6000602082019050818103600083015261331f81612e84565b9050919050565b6000602082019050818103600083015261333f81612ea7565b9050919050565b6000602082019050818103600083015261335f81612eca565b9050919050565b6000602082019050818103600083015261337f81612eed565b9050919050565b6000602082019050818103600083015261339f81612f10565b9050919050565b600060208201905081810360008301526133bf81612f33565b9050919050565b600060208201905081810360008301526133df81612f56565b9050919050565b600060208201905081810360008301526133ff81612f79565b9050919050565b6000602082019050818103600083015261341f81612f9c565b9050919050565b6000602082019050818103600083015261343f81612fbf565b9050919050565b6000602082019050818103600083015261345f81612fe2565b9050919050565b6000602082019050818103600083015261347f81613005565b9050919050565b6000602082019050818103600083015261349f81613028565b9050919050565b600060208201905081810360008301526134bf8161304b565b9050919050565b600060208201905081810360008301526134df8161306e565b9050919050565b600060208201905081810360008301526134ff81613091565b9050919050565b6000602082019050818103600083015261351f816130b4565b9050919050565b6000602082019050818103600083015261353f816130d7565b9050919050565b600060608201905061355b600083018461313c565b92915050565b6000608082019050613576600083018561313c565b6135836060830184612d46565b9392505050565b600060208201905061359f600083018461318d565b92915050565b60006135af6135c0565b90506135bb828261384b565b919050565b6000604051905090565b600067ffffffffffffffff8211156135e5576135e4613983565b5b6135ee826139b2565b9050602081019050919050565b600067ffffffffffffffff82111561361657613615613983565b5b61361f826139b2565b9050602081019050919050565b6000819050602082019050919050565b600081519050919050565b600081519050919050565b600081519050919050565b6000602082019050919050565b600082825260208201905092915050565b600082825260208201905092915050565b600082825260208201905092915050565b600081905092915050565b60006136b3826137cd565b91506136be836137cd565b9250827fffffffffffffffffffffffffffffffffffffffffffffffffffffffffffffffff038211156136f3576136f26138f6565b5b828201905092915050565b6000613709826137cd565b9150613714836137cd565b92508261372457613723613925565b5b828204905092915050565b600061373a826137cd565b9150613745836137cd565b925082821015613758576137576138f6565b5b828203905092915050565b600061376e826137ad565b9050919050565b60008115159050919050565b60007fffffffff0000000000000000000000000000000000000000000000000000000082169050919050565b600073ffffffffffffffffffffffffffffffffffffffff82169050919050565b6000819050919050565b82818337600083830152505050565b60005b838110156138045780820151818401526020810190506137e9565b83811115613813576000848401525b50505050565b6000600282049050600182168061383157607f821691505b6020821081141561384557613844613954565b5b50919050565b613854826139b2565b810181811067ffffffffffffffff8211171561387357613872613983565b5b80604052505050565b6000613887826137cd565b91507fffffffffffffffffffffffffffffffffffffffffffffffffffffffffffffffff8214156138ba576138b96138f6565b5b600182019050919050565b60006138d0826137cd565b91506138db836137cd565b9250826138eb576138ea613925565b5b828206905092915050565b7f4e487b7100000000000000000000000000000000000000000000000000000000600052601160045260246000fd5b7f4e487b7100000000000000000000000000000000000000000000000000000000600052601260045260246000fd5b7f4e487b7100000000000000000000000000000000000000000000000000000000600052602260045260246000fd5b7f4e487b7100000000000000000000000000000000000000000000000000000000600052604160045260246000fd5b6000601f19601f8301169050919050565b7f456e6420696e6465782063616e6e6f742062652067726561746572207468616e60008201527f20746f74616c206e756d626572206f6620746f6b656e73000000000000000000602082015250565b7f455243373231456e756d657261626c653a206f776e657220696e646578206f7560008201527f74206f6620626f756e6473000000000000000000000000000000000000000000602082015250565b7f4552433732313a207472616e7366657220746f206e6f6e20455243373231526560008201527f63656976657220696d706c656d656e7465720000000000000000000000000000602082015250565b7f4552433732313a207472616e736665722066726f6d20696e636f72726563742060008201527f6f776e6572000000000000000000000000000000000000000000000000000000602082015250565b7f4552433732313a20746f6b656e20616c7265616479206d696e74656400000000600082015250565b7f4552433732313a207472616e7366657220746f20746865207a65726f2061646460008201527f7265737300000000000000000000000000000000000000000000000000000000602082015250565b7f4552433732313a20617070726f766520746f2063616c6c657200000000000000600082015250565b7f4552433732313a206f70657261746f7220717565727920666f72206e6f6e657860008201527f697374656e7420746f6b656e0000000000000000000000000000000000000000602082015250565b7f4f6e6c7920746865206f776e65722063616e20646f2074686973000000000000600082015250565b7f537461727420696e6465782063616e6e6f74206265206772656174657220746860008201527f616e20656e6420696e6465780000000000000000000000000000000000000000602082015250565b7f4552433732313a20617070726f76652063616c6c6572206973206e6f74206f7760008201527f6e6572206e6f7220617070726f76656420666f7220616c6c0000000000000000602082015250565b7f4552433732313a2062616c616e636520717565727920666f7220746865207a6560008201527f726f206164647265737300000000000000000000000000000000000000000000602082015250565b7f4552433732313a206f776e657220717565727920666f72206e6f6e657869737460008201527f656e7420746f6b656e0000000000000000000000000000000000000000000000602082015250565b7f4552433732313a206d696e7420746f20746865207a65726f2061646472657373600082015250565b7f43686565736520746f6b656e2063616e206265207472616e736665727265642060008201527f6f6e6c7920696e20323420686f757273206166746572206974207472616e736660208201527f6572726564000000000000000000000000000000000000000000000000000000604082015250565b7f4552433732313a20617070726f76656420717565727920666f72206e6f6e657860008201527f697374656e7420746f6b656e0000000000000000000000000000000000000000602082015250565b7f43616e6e6f742063726561746520636865657365207768696c6520746865206760008201527f616d6520697320696e2070726f67726573730000000000000000000000000000602082015250565b7f4552433732314d657461646174613a2055524920717565727920666f72206e6f60008201527f6e6578697374656e7420746f6b656e0000000000000000000000000000000000602082015250565b7f4552433732313a20617070726f76616c20746f2063757272656e74206f776e6560008201527f7200000000000000000000000000000000000000000000000000000000000000602082015250565b7f537461727420696e6465782063616e6e6f74206265206e656761746976650000600082015250565b7f4552433732313a207472616e736665722063616c6c6572206973206e6f74206f60008201527f776e6572206e6f7220617070726f766564000000000000000000000000000000602082015250565b7f455243373231456e756d657261626c653a20676c6f62616c20696e646578206f60008201527f7574206f6620626f756e64730000000000000000000000000000000000000000602082015250565b613ffe81613763565b811461400957600080fd5b50565b61401581613775565b811461402057600080fd5b50565b61402c81613781565b811461403757600080fd5b50565b614043816137cd565b811461404e57600080fd5b5056fea264697066735822122074f036cd97f1e413a23ab4291715b3cb5db27e75c301bb5153041e13ce1b9c0864736f6c63430008040033",
  "immutableReferences": {},
  "source": "//SPDX-License-Identifier: UNLICENSED\npragma solidity ^0.8.4;\n\n// ERC721 Enumarable Extension Contract\nimport \"@openzeppelin/contracts/token/ERC721/extensions/ERC721Enumerable.sol\";\n\ncontract CheeseTouch is ERC721Enumerable {\n    address private _owner; // Contract owner's address\n    uint256 public counter; // Counter for the number of tokens minted\n    uint256 public deadline; // Time for token\n\n    string private _baseTokenURI; // Base token URI\n\n    // Checkpoint struct for the checkpointing mechanism\n    struct Checkpoint {\n        uint256 tokenId;\n        uint256 lastTransfer;\n        address owner;\n    }\n\n    // Mapping for checkpoints\n    mapping(uint256 => Checkpoint) internal checkpoints;\n\n    // Mapping for users scores\n    mapping(address => uint256) internal scores;\n\n    // Constructor\n    constructor(\n        string memory _name,\n        string memory _symbol,\n        string memory baseTokenURI\n    ) ERC721(_name, _symbol) {\n        _owner = msg.sender; // Sets owner\n\n        _baseTokenURI = baseTokenURI; // Set base token URI\n\n        deadline = 1 days; // Set the deadline for the game\n\n        // Set first checkpoint\n        checkpoints[counter] = Checkpoint(counter, block.timestamp, msg.sender);\n\n        // Game is starting with the owner\n        _mint(msg.sender, counter); // Mints the token with tokenID '0'\n\n        counter += 1; // Increment the counter to '1'\n    }\n\n    // Modifier\n    modifier onlyOwner() {\n        require(msg.sender == _owner, \"Only the owner can do this\");\n        _;\n    }\n\n    // Only create cheese when there is no nft token 'live'\n    modifier canCreateCheese() {\n        // Current token id\n        uint256 currentTokenId = counter - 1;\n\n        // Current checkpint struct\n        Checkpoint memory c = checkpoints[currentTokenId];\n\n        require(\n            c.lastTransfer + deadline < block.timestamp,\n            \"Cannot create cheese while the game is in progress\"\n        );\n        _;\n    }\n\n    // Overrides _baseURI function from ERC721Enumerable\n    function _baseURI() internal view override returns (string memory) {\n        return _baseTokenURI;\n    }\n\n    // Only owner can set the base token URI\n    function setBaseTokenURI(string memory _uri) public onlyOwner {\n        _baseTokenURI = _uri;\n    }\n\n    // Overrides _beforeTokenTransfer function for checking can user send token\n    function _beforeTokenTransfer(\n        address from,\n        address to,\n        uint256 tokenId\n    ) internal virtual override {\n        require(\n            checkpoints[tokenId].lastTransfer + deadline > block.timestamp,\n            \"Cheese token can be transferred only in 24 hours after it transferred\"\n        );\n        super._beforeTokenTransfer(from, to, tokenId);\n    }\n\n    // Overrides _aftertokenTransfer function for setting new checkpoint\n    function _afterTokenTransfer(\n        address from,\n        address to,\n        uint256 tokenId\n    ) internal virtual override {\n        checkpoints[tokenId].lastTransfer = block.timestamp;\n        checkpoints[tokenId].owner = to;\n        super._afterTokenTransfer(from, to, tokenId);\n    }\n\n    // Anyone can mint a new token if there is only one token 'live'\n    function createCheese() public canCreateCheese {\n        // Add point to the user\n        scores[ownerOf(counter - 1)] += 1;\n\n        // Burns the token\n        _burn(counter - 1);\n\n        _mint(msg.sender, counter); // Mint current tokenID to msg.sender\n\n        checkpoints[counter].lastTransfer = block.timestamp; // Set last transfer time\n        checkpoints[counter].owner = msg.sender; // Set owner\n        checkpoints[counter].tokenId = counter; // Set token id\n\n        counter += 1; // Increment the counter\n    }\n\n    // Getter function for current checkpoint\n    function getCurrentCheckpoint() public view returns (Checkpoint memory) {\n        return checkpoints[counter - 1];\n    }\n\n    // Overrides totalSupply function for returning the total number of tokens\n    // In cheese touch game there will be always only one token so totalSupply function always returning 1 as the result\n    function totalSupply() public pure override returns (uint256) {\n        return 1;\n    }\n\n    // @notice Override _mint function\n    // @notice Remove _beforeTokenTransfer & _afterTokenTransfer from the overridden mint function\n    //         to prevent the token from being transferred before the game starts\n    function _mint(address to, uint256 tokenId) internal override {\n        require(to != address(0), \"ERC721: mint to the zero address\");\n        require(!_exists(tokenId), \"ERC721: token already minted\");\n\n        _balances[to] += 1;\n        _owners[tokenId] = to;\n\n        emit Transfer(address(0), to, tokenId);\n    }\n\n    // @notice Override _burn function\n    // @notice Remove _beforeTokenTransfer & _afterTokenTransfer from the overridden burn function\n    //         to prevent the token from being transferred when burn\n    function _burn(uint256 tokenId) internal virtual override {\n        address owner = ERC721.ownerOf(tokenId);\n\n        // Clear approvals\n        _approve(address(0), tokenId);\n\n        _balances[owner] -= 1;\n        delete _owners[tokenId];\n\n        emit Transfer(owner, address(0), tokenId);\n    }\n\n    // @notice Getter function for past result\n    function getPastResult(uint256 start, uint256 end)\n        public\n        view\n        returns (Checkpoint[] memory)\n    {\n        // Condifitons for valid pagination\n        require(start >= 0, \"Start index cannot be negative\");\n        require(start <= end, \"Start index cannot be greater than end index\");\n        require(\n            end <= counter,\n            \"End index cannot be greater than total number of tokens\"\n        );\n\n        // Initialize the array\n        Checkpoint[] memory result = new Checkpoint[](end - start);\n\n        // Intialize the length of array for gas optimization\n        uint256 length = end - start;\n        for (uint256 index = 0; index < length; index++) {\n            result[index] = checkpoints[start + index];\n        }\n\n        return result;\n    }\n\n    // @notice Getter function for current checkpoint information\n    function getInfo()\n        public\n        view\n        returns (Checkpoint memory checkpoint, bool isDead)\n    {\n        checkpoint = checkpoints[counter - 1];\n        isDead = checkpoint.lastTransfer + deadline < block.timestamp;\n    }\n\n    // @notice Getter function for user's score\n    function getScore(address user) public view returns (uint256) {\n        return scores[user];\n    }\n\n    // @notice Getter function for msg.sender's score\n    function getScore__sender() public view returns (uint256) {\n        return getScore(msg.sender);\n    }\n}\n",
  "sourcePath": "/Users/mehmetberatozturk/Documents/Github/cheese-touch/contracts/CheeseTouch.sol",
  "compiler": {
    "name": "solc",
    "version": "0.8.4+commit.c7e474f2.Emscripten.clang"
  },
  "schemaVersion": "3.4.6",
  "updatedAt": "2022-04-18T22:15:46.902Z",
  "networkType": "ethereum",
  "devdoc": {
    "kind": "dev",
    "methods": {
      "approve(address,uint256)": {
        "details": "See {IERC721-approve}."
      },
      "balanceOf(address)": {
        "details": "See {IERC721-balanceOf}."
      },
      "getApproved(uint256)": {
        "details": "See {IERC721-getApproved}."
      },
      "isApprovedForAll(address,address)": {
        "details": "See {IERC721-isApprovedForAll}."
      },
      "name()": {
        "details": "See {IERC721Metadata-name}."
      },
      "ownerOf(uint256)": {
        "details": "See {IERC721-ownerOf}."
      },
      "safeTransferFrom(address,address,uint256)": {
        "details": "See {IERC721-safeTransferFrom}."
      },
      "safeTransferFrom(address,address,uint256,bytes)": {
        "details": "See {IERC721-safeTransferFrom}."
      },
      "setApprovalForAll(address,bool)": {
        "details": "See {IERC721-setApprovalForAll}."
      },
      "supportsInterface(bytes4)": {
        "details": "See {IERC165-supportsInterface}."
      },
      "symbol()": {
        "details": "See {IERC721Metadata-symbol}."
      },
      "tokenByIndex(uint256)": {
        "details": "See {IERC721Enumerable-tokenByIndex}."
      },
      "tokenOfOwnerByIndex(address,uint256)": {
        "details": "See {IERC721Enumerable-tokenOfOwnerByIndex}."
      },
      "tokenURI(uint256)": {
        "details": "See {IERC721Metadata-tokenURI}."
      },
      "totalSupply()": {
        "details": "See {IERC721Enumerable-totalSupply}."
      },
      "transferFrom(address,address,uint256)": {
        "details": "See {IERC721-transferFrom}."
      }
    },
    "version": 1
  },
  "userdoc": {
    "kind": "user",
    "methods": {},
    "version": 1
  }
}